:100000000C94EC000C94FE000C94FE000C94FE008A
:100010000C94FE000C94FE000C94FE000C94FE0068
:100020000C94FE000C94FE000C94FE000C94FE0058
:100030000C94FE000C9413010C94FE000C94FE0032
:100040000C94FE000C94FE000C94FE000C94FE0038
:100050000C94FE003F065B4F666D7D077F6F777CDB
:10006000585E797150786E1C5C7374761E38543902
:100070003F634009122449361B2D70460D0A2A2A77
:10008000425546465F4F564552464C4F572A2A0D19
:100090000A000D0A00204C656E3D007D20686578E1
:1000A0003A200050726F63657373656420667261F5
:1000B0006D653A207B000D0A002C5B69636F6E73DF
:1000C0003A375D3D002C5B646973633A365D3D00F1
:1000D0002C5B446F74733A325D3D00416C6C536528
:1000E00074205B44696769743A355D3D000D0A0010
:1000F00054657874546F5365743D446F74733A203B
:10010000000D0A00446F75626C65446F74733D7333
:10011000746174653A20000D0A00436972636C656E
:100120005F646973633D73746174653A20000D0AFE
:100130000049636F6E3D73746174653A20000D0A67
:100140000044696769742F636861725F636F6465F7
:100150003A20000D0A004B65792070726573733A7E
:100160002000544D3136323820696E697420646F36
:100170006E652E204D61696E206C6F6F70207374F8
:100180006172742E2E2E0D0A00446973706C6179B1
:1001900020636C6561722E2E2E2E2E0D0A000D0A24
:1001A000544D313632382074657374207374617223
:1001B000742E2E2E0D0A000D0A2A2A2A464C55535B
:1001C000482A2A2A0D0A003031323334353637387E
:1001D000394142434445460011241FBECFE5D8E0D3
:1001E000DEBFCDBF10E0A0E6B0E001C01D92A43894
:1001F000B107E1F70E941E020C94BC060C940000AB
:1002000080538A3008F087500895ECE6F0E01192B0
:1002100080E0E438F807D9F71092600087EB91E0AE
:100220000E944C0508951F920F920FB60F92112451
:100230002F933F934F935F936F937F938F939F93EE
:10024000AF93BF93EF93FF939CB19D3021F481E076
:100250008093610016C09B3119F40E94050111C002
:1002600080916000883148F4E82FF0E0E459FF4FB6
:1002700090838F5F8093600004C08CE790E00E94C1
:100280004C05FF91EF91BF91AF919F918F917F911D
:100290006F915F914F913F912F910F900FBE0F90F3
:1002A0001F9018958A3F18F48770809362008091A0
:1002B0006200877088680E9411060895CF92DF92CD
:1002C000EF92FF921F93DF93CF93CDB7DEB72E97B8
:1002D0000FB6F894DEBF0FBECDBF7E010894E11CBF
:1002E000F11CF701CE010F961192E817F907E1F71B
:1002F000A3E6B0E040E050E081E0C82ED12C4423DA
:1003000009F49AC0413011F451E00BC0423011F4AD
:1003100057E007C0433011F452E003C0443009F401
:1003200053E08C91682F70E01C2D052E01C0110F39
:100330000A94EAF7F70120E030E0CB01022E02C078
:10034000959587950A94E2F780FF03C08081812B01
:1003500080832F5F3F4F32962730310571F74F5F13
:100360001196453061F680916A00982F80FF03C096
:100370008C8581608C8791FF03C08B8180618B832A
:1003800080916900982F80FF03C08A8181608A83F1
:1003900091FF03C08C8181608C8392FF03C08A85AA
:1003A00081608A8793FF03C088858160888794FF76
:1003B00003C089818061898395FF03C0898580613D
:1003C000898796FF03C08F8180618F838091680049
:1003D000982F80FF03C08C8182608C8391FF03C0C3
:1003E0008C8582608C8792FF03C08E8582608E87A9
:1003F00093FF03C088858260888794FF03C08A8545
:1004000082608A8795FF03C08A8182608A8380E048
:100410006EE0AE014F5F5F4F0E9422062E960FB630
:10042000F894DEBF0FBECDBFCF91DF911F91FF903B
:10043000EF90DF90CF90089550E073CFEF92FF924E
:100440000F931F93CF93DF93B89AC0988CE090E0FE
:1004500068E946E00E94330578948EE991E00E94B5
:100460004C0584E190E00E9425050E946C0683E023
:100470000E94110688E80E94110689E891E00E9416
:100480004C0510E0812F60E00E944D061F5F1E307A
:10049000C9F782E691E00E944C0510926300109229
:1004A00064001092650010926600109267000E942E
:1004B00005010E94DE05182F8823A9F086E591E04A
:1004C0000E944C05812F0E945E0580E20E943F053C
:1004D000812F0E94720583E591E00E944C058BE418
:1004E00090E00E9425050E945E0181E090E00E945C
:1004F0002505809161008130E1F680916C008436A1
:1005000009F050C080916D00182F10531A3008F078
:1005100017501530E0F080916E00082F00530A301C
:1005200028F00750083210F080E005C0E02FF0E01E
:10053000EC5AFF4F84918093630080936400809312
:100540006500809366008093670015E019C0809174
:100550006E00082F00530A3048F00750083230F080
:10056000E12FF0E0ED59FF4F10820AC0E02FF0E0DC
:10057000EC5AFF4F8491E12FF0E0ED59FF4F80835B
:1005800081E491E00E944C05812F90E00E94840557
:100590008FE20E943F05802F90E00E9484058EE349
:1005A00091E049C0893609F049C080916D00182F4B
:1005B00010531A3008F0175080916E00082F005326
:1005C0000A3008F00750173038F0013011F48FEF7F
:1005D0001FC0109269001EC0013071F481E090E0EC
:1005E000012E02C0880F991F0A94E2F7209169003A
:1005F000282B209369000EC081E090E0012E02C0FC
:10060000880F991F0A94E2F7809520916900822350
:100610008093690081E391E00E944C05812F90E076
:100620000E9484058DE30E943F05802F90E00E9488
:1006300084058EE291E00E944C05D3C1833609F017
:1006400047C080916D00182F10531A3008F01750D2
:1006500080916E00082F00530A3008F007501630C2
:1006600038F0013011F48FEF1FC0109268001EC0E7
:10067000013071F481E090E0012E02C0880F991FD3
:100680000A94E2F720916800282B209368000EC09E
:1006900081E090E0012E02C0880F991F0A94E2F7D2
:1006A0008095209168008223809368008AE191E020
:1006B0000E944C05812F90E00E9484058DE30E94EA
:1006C0003F05802F90E00E94840587E191E0B3CF41
:1006D000803709F047C080916D00182F10531A30F1
:1006E00008F0175080916E00082F00530A3008F070
:1006F0000750123038F0013011F483E01FC010921F
:100700006A001EC0013071F481E090E0012E02C049
:10071000880F991F0A94E2F720916A00282B2093F2
:100720006A000EC081E090E0012E02C0880F991F80
:100730000A94E2F7809520916A00822380936A00F0
:1007400084E091E00E944C05812F90E00E94840596
:100750008DE30E943F05802F90E00E94840581E098
:1007600091E069CF843709F05EC080EF90E00E948D
:100770004C05CDE6D0E043E6E42E40E0F42E88813F
:10078000182F10531A3008F01750812F0E945E0561
:1007900080E20E943F05193218F0D7011C9207C071
:1007A000E12FF0E0EC5AFF4FE491D701EC93219652
:1007B0000894E11CF11CB0E0C237DB0701F7888127
:1007C000082F00530A3008F0075080917300182F4B
:1007D00010531A3008F01750013021F480916A004C
:1007E000816003C080916A008E7F80936A0011301F
:1007F00021F480916A00826003C080916A008D7F3D
:1008000080936A008DE30E943F05802F90E00E9454
:10081000840580E20E943F05812F90E00E948405BC
:100820008DEE90E008CF813609F0CBC08BED90E0E3
:100830000E944C05CDE6D0E033E6E32E30E0F32E07
:100840008881182F10531A3008F01750812F0E94FA
:100850005E0580E20E943F05193218F0F701108210
:1008600007C0E12FF0E0EC5AFF4FE491D701EC9381
:1008700021960894E11CF11CB0E0C237DB0701F7B8
:100880008881082F00530A3008F0075080917300C8
:10089000182F10531A3008F01750013021F48091AE
:1008A0006A00816003C080916A008E7F80936A0035
:1008B000113021F480916A00826003C080916A0047
:1008C0008D7F80936A0080ED90E00E944C05802F20
:1008D00090E00E94840580E20E943F05812F90E015
:1008E0000E94840585EC90E00E944C0504E710E02E
:1008F000C0E0D0E021E0E22EF12CF8018081482F09
:1009000040534A3008F04750413059F497010C2EBB
:1009100002C0220F331F0A94E2F780916800822BF5
:100920000BC0C7010C2E02C0880F991F0A94E2F772
:10093000809520916800822380936800842F90E046
:100940000E94840521960F5F1F4FC630D105A9F67E
:1009500089EB90E00E944C050AE710E0C0E0D0E08F
:1009600091E0E92EF12CD8018C91482F40534A3068
:1009700008F04750413059F497010C2E02C0220F65
:10098000331F0A94E2F780916900822B0BC0C701E4
:100990000C2E02C0880F991F0A94E2F780952091CF
:1009A0006900822380936900842F90E00E9484056F
:1009B00021960F5F1F4FC730D105A9F686EB90E057
:1009C0003ACE823671F490916D00892F80538A302F
:1009D00008F08750883008F087E0877088680E94A8
:1009E000110683EA90E00E944C058CE690E00E949C
:1009F00043058BE990E00E944C05CCE6D0E089915C
:100A00000E945E0580E20E943F05B0E0C438DB072B
:100A1000B1F785E990E00E944C058091600090E07C
:100A20000E94840582E990E00E944C050E94050125
:100A3000109261003ECD06C00000000000000000E2
:100A4000000001970097C1F70895CF93DF93EC0161
:100A500005C083EE93E00E941B0521972097C9F7FC
:100A6000DF91CF9108951CB889B99F7090BD862FF2
:100A700083708BB9687F6AB9406840BD08955D9BFB
:100A8000FECF8CB90895FC0103C05D9BFECF8CB9ED
:100A900081918823D1F7089503C05D9BFECF2CB9C7
:100AA000FC01019624912223C1F708958F70E7EC91
:100AB000F1E0E80FF11DE4918E2F0895E82FE29503
:100AC000EF70F0E0E953FE4F94915D9BFECF9CB92F
:100AD0008F70E82FF0E0E953FE4F84915D9BFECFCD
:100AE0008CB9089590E030E321E387FF04C05D9B5B
:100AF000FECF2CB903C05D9BFECF3CB99F5F983001
:100B000011F0880FF2CF0895DF93CF93CDB7DEB702
:100B100027970FB6F894DEBF0FBECDBFBE016F5F43
:100B20007F4F4AE050E00E9477060E9443052796D7
:100B30000FB6F894DEBF0FBECDBFCF91DF91089501
:100B40000F931F93D298DA9A85E090E00E941B05DC
:100B500010E000E0110FD99885E090E00E941B059D
:100B6000D99ACA99116085E090E00E941B050F5F39
:100B7000083081F7D298DA9A812F1F910F9108954A
:100B80000F931F93082FD29A10E0D99800FF02C04C
:100B9000DA9A01C0DA9885E090E00E941B05D99AA4
:100BA00085E090E00E941B051F5F183011F006954C
:100BB000ECCFD298DA9A1F910F9108950F931F935B
:100BC000D89885E090E00E941B0582E40E94C00551
:100BD0008FE090E00E941B050E94A0050E94A005E6
:100BE000182F0E94A005082F0E94A005D89A85E022
:100BF00090E00E941B05212F30E0C90133E096955B
:100C000087953A95E1F7817014FD826026FD806238
:100C100017FD846007FD886006FD80611F910F91BC
:100C200008951F93182FD89885E090E00E941B0527
:100C3000812F0E94C005D89A85E090E00E941B0594
:100C40001F9108951F93CF93DF93EA01162F6F3002
:100C500008F01EE08E3008F08DE08F70806C0E94EE
:100C600011068FE090E00E941B05D89885E090E087
:100C70000E941B0580E40E94C00504C089910E9467
:100C8000C00511501123D1F7D89A85E090E00E9459
:100C90001B05DF91CF911F9108951F93162F8E3062
:100CA00008F08DE08F70806C0E9411068FE090E05C
:100CB0000E941B05D89885E090E00E941B0584E403
:100CC0000E94C005812F0E94C005D89A85E090E05F
:100CD0000E941B051F910895D19AD99AD09AD89A4B
:100CE000D298DA9A8FE090E00E941B050895FB01EC
:100CF0009F01E8944230C4F04532B4F44A3029F4FC
:100D000097FB1EF4909581959F4F642F77270E9443
:100D1000A806805D8A330CF0895D8193CB01009732
:100D2000A1F716F45DE251931082C9010C94980664
:100D3000DC01FC01672F71917723E1F7329704C042
:100D40007C916D9370836291AE17BF07C8F30895CD
:100D5000AA1BBB1B51E107C0AA1FBB1FA617B707E1
:100D600010F0A61BB70B881F991F5A95A9F78095FD
:0C0D70009095BC01CD010895F894FFCFD0
:00000001FF
